{
  "address": "0xbc1e247e6eec6c179f77b6E28A0c90609EB1c4EB",
  "abi": [
    {
      "inputs": [
        {
          "internalType": "address",
          "name": "_nftAddress",
          "type": "address"
        },
        {
          "internalType": "address",
          "name": "_wpolAddress",
          "type": "address"
        }
      ],
      "stateMutability": "nonpayable",
      "type": "constructor"
    },
    {
      "inputs": [
        {
          "internalType": "address",
          "name": "owner",
          "type": "address"
        }
      ],
      "name": "OwnableInvalidOwner",
      "type": "error"
    },
    {
      "inputs": [
        {
          "internalType": "address",
          "name": "account",
          "type": "address"
        }
      ],
      "name": "OwnableUnauthorizedAccount",
      "type": "error"
    },
    {
      "inputs": [],
      "name": "ReentrancyGuardReentrantCall",
      "type": "error"
    },
    {
      "anonymous": false,
      "inputs": [
        {
          "indexed": true,
          "internalType": "address",
          "name": "seller",
          "type": "address"
        },
        {
          "indexed": true,
          "internalType": "uint256",
          "name": "tokenId",
          "type": "uint256"
        }
      ],
      "name": "ItemCanceled",
      "type": "event"
    },
    {
      "anonymous": false,
      "inputs": [
        {
          "indexed": true,
          "internalType": "address",
          "name": "seller",
          "type": "address"
        },
        {
          "indexed": true,
          "internalType": "uint256",
          "name": "tokenId",
          "type": "uint256"
        },
        {
          "indexed": false,
          "internalType": "uint256",
          "name": "price",
          "type": "uint256"
        }
      ],
      "name": "ItemListed",
      "type": "event"
    },
    {
      "anonymous": false,
      "inputs": [
        {
          "indexed": true,
          "internalType": "address",
          "name": "buyer",
          "type": "address"
        },
        {
          "indexed": true,
          "internalType": "address",
          "name": "seller",
          "type": "address"
        },
        {
          "indexed": true,
          "internalType": "uint256",
          "name": "tokenId",
          "type": "uint256"
        },
        {
          "indexed": false,
          "internalType": "uint256",
          "name": "price",
          "type": "uint256"
        },
        {
          "indexed": false,
          "internalType": "bool",
          "name": "firstSale",
          "type": "bool"
        }
      ],
      "name": "ItemSold",
      "type": "event"
    },
    {
      "anonymous": false,
      "inputs": [
        {
          "indexed": true,
          "internalType": "address",
          "name": "seller",
          "type": "address"
        },
        {
          "indexed": true,
          "internalType": "address",
          "name": "bidder",
          "type": "address"
        },
        {
          "indexed": true,
          "internalType": "uint256",
          "name": "tokenId",
          "type": "uint256"
        },
        {
          "indexed": false,
          "internalType": "uint256",
          "name": "price",
          "type": "uint256"
        }
      ],
      "name": "OfferAccepted",
      "type": "event"
    },
    {
      "anonymous": false,
      "inputs": [
        {
          "indexed": true,
          "internalType": "address",
          "name": "bidder",
          "type": "address"
        },
        {
          "indexed": true,
          "internalType": "uint256",
          "name": "tokenId",
          "type": "uint256"
        }
      ],
      "name": "OfferCanceled",
      "type": "event"
    },
    {
      "anonymous": false,
      "inputs": [
        {
          "indexed": true,
          "internalType": "address",
          "name": "bidder",
          "type": "address"
        },
        {
          "indexed": true,
          "internalType": "uint256",
          "name": "tokenId",
          "type": "uint256"
        },
        {
          "indexed": false,
          "internalType": "uint256",
          "name": "price",
          "type": "uint256"
        }
      ],
      "name": "OfferMade",
      "type": "event"
    },
    {
      "anonymous": false,
      "inputs": [
        {
          "indexed": true,
          "internalType": "address",
          "name": "previousOwner",
          "type": "address"
        },
        {
          "indexed": true,
          "internalType": "address",
          "name": "newOwner",
          "type": "address"
        }
      ],
      "name": "OwnershipTransferred",
      "type": "event"
    },
    {
      "anonymous": false,
      "inputs": [
        {
          "indexed": false,
          "internalType": "uint256",
          "name": "newFee",
          "type": "uint256"
        }
      ],
      "name": "PlatformFeeUpdated",
      "type": "event"
    },
    {
      "inputs": [],
      "name": "MAX_FEE",
      "outputs": [
        {
          "internalType": "uint256",
          "name": "",
          "type": "uint256"
        }
      ],
      "stateMutability": "view",
      "type": "function"
    },
    {
      "inputs": [
        {
          "internalType": "uint256",
          "name": "tokenId",
          "type": "uint256"
        },
        {
          "internalType": "address",
          "name": "bidder",
          "type": "address"
        }
      ],
      "name": "acceptOffer",
      "outputs": [],
      "stateMutability": "nonpayable",
      "type": "function"
    },
    {
      "inputs": [
        {
          "internalType": "uint256",
          "name": "tokenId",
          "type": "uint256"
        }
      ],
      "name": "buyItem",
      "outputs": [],
      "stateMutability": "payable",
      "type": "function"
    },
    {
      "inputs": [
        {
          "internalType": "uint256",
          "name": "tokenId",
          "type": "uint256"
        }
      ],
      "name": "cancelListing",
      "outputs": [],
      "stateMutability": "nonpayable",
      "type": "function"
    },
    {
      "inputs": [
        {
          "internalType": "uint256",
          "name": "tokenId",
          "type": "uint256"
        }
      ],
      "name": "cancelOffer",
      "outputs": [],
      "stateMutability": "nonpayable",
      "type": "function"
    },
    {
      "inputs": [
        {
          "internalType": "uint256",
          "name": "",
          "type": "uint256"
        }
      ],
      "name": "hasSoldBefore",
      "outputs": [
        {
          "internalType": "bool",
          "name": "",
          "type": "bool"
        }
      ],
      "stateMutability": "view",
      "type": "function"
    },
    {
      "inputs": [
        {
          "internalType": "uint256",
          "name": "tokenId",
          "type": "uint256"
        }
      ],
      "name": "isListed",
      "outputs": [
        {
          "internalType": "bool",
          "name": "",
          "type": "bool"
        }
      ],
      "stateMutability": "view",
      "type": "function"
    },
    {
      "inputs": [
        {
          "internalType": "uint256",
          "name": "tokenId",
          "type": "uint256"
        },
        {
          "internalType": "uint256",
          "name": "price",
          "type": "uint256"
        }
      ],
      "name": "listItem",
      "outputs": [],
      "stateMutability": "nonpayable",
      "type": "function"
    },
    {
      "inputs": [
        {
          "internalType": "uint256",
          "name": "tokenId",
          "type": "uint256"
        }
      ],
      "name": "listingPrice",
      "outputs": [
        {
          "internalType": "uint256",
          "name": "",
          "type": "uint256"
        }
      ],
      "stateMutability": "view",
      "type": "function"
    },
    {
      "inputs": [
        {
          "internalType": "uint256",
          "name": "",
          "type": "uint256"
        }
      ],
      "name": "listings",
      "outputs": [
        {
          "internalType": "address",
          "name": "seller",
          "type": "address"
        },
        {
          "internalType": "uint256",
          "name": "price",
          "type": "uint256"
        },
        {
          "internalType": "bool",
          "name": "exists",
          "type": "bool"
        }
      ],
      "stateMutability": "view",
      "type": "function"
    },
    {
      "inputs": [
        {
          "internalType": "uint256",
          "name": "tokenId",
          "type": "uint256"
        },
        {
          "internalType": "uint256",
          "name": "price",
          "type": "uint256"
        },
        {
          "internalType": "uint256",
          "name": "duration",
          "type": "uint256"
        }
      ],
      "name": "makeOffer",
      "outputs": [],
      "stateMutability": "nonpayable",
      "type": "function"
    },
    {
      "inputs": [],
      "name": "nftContract",
      "outputs": [
        {
          "internalType": "contract IERC721",
          "name": "",
          "type": "address"
        }
      ],
      "stateMutability": "view",
      "type": "function"
    },
    {
      "inputs": [
        {
          "internalType": "uint256",
          "name": "",
          "type": "uint256"
        },
        {
          "internalType": "address",
          "name": "",
          "type": "address"
        }
      ],
      "name": "offers",
      "outputs": [
        {
          "internalType": "address",
          "name": "bidder",
          "type": "address"
        },
        {
          "internalType": "uint256",
          "name": "price",
          "type": "uint256"
        },
        {
          "internalType": "uint256",
          "name": "expiration",
          "type": "uint256"
        }
      ],
      "stateMutability": "view",
      "type": "function"
    },
    {
      "inputs": [],
      "name": "owner",
      "outputs": [
        {
          "internalType": "address",
          "name": "",
          "type": "address"
        }
      ],
      "stateMutability": "view",
      "type": "function"
    },
    {
      "inputs": [],
      "name": "platformFee",
      "outputs": [
        {
          "internalType": "uint256",
          "name": "",
          "type": "uint256"
        }
      ],
      "stateMutability": "view",
      "type": "function"
    },
    {
      "inputs": [],
      "name": "renounceOwnership",
      "outputs": [],
      "stateMutability": "nonpayable",
      "type": "function"
    },
    {
      "inputs": [
        {
          "internalType": "uint256",
          "name": "_newFee",
          "type": "uint256"
        }
      ],
      "name": "setPlatformFee",
      "outputs": [],
      "stateMutability": "nonpayable",
      "type": "function"
    },
    {
      "inputs": [
        {
          "internalType": "address",
          "name": "newOwner",
          "type": "address"
        }
      ],
      "name": "transferOwnership",
      "outputs": [],
      "stateMutability": "nonpayable",
      "type": "function"
    },
    {
      "inputs": [],
      "name": "wpolContract",
      "outputs": [
        {
          "internalType": "contract IERC20",
          "name": "",
          "type": "address"
        }
      ],
      "stateMutability": "view",
      "type": "function"
    }
  ],
  "transactionHash": "0x80368ce21fac85f651f66922b77eb4c7b9e3d1346df6a5acb1ce2f94a7a84fb1",
  "args": [
    "0x8e46c897bc74405922871a8a6863ccf5cd1fc721",
    "0x9c3C9283D3e44854697Cd22D3Faa240Cfb032889"
  ],
  "numDeployments": 1,
  "solcInputHash": "91930365ecc2e2e7e4e8db1b3f428b68",
  "bytecode": "0x60c0604052606460015534801562000015575f80fd5b5060405162001ad438038062001ad4833981016040819052620000389162000111565b60017f9b779b17422d0df92223018b32b4d1fa46e071723d6817e2486d003becc55f005533806200008257604051631e4fbdf760e01b81525f600482015260240160405180910390fd5b6200008d81620000a6565b506001600160a01b039182166080521660a05262000147565b5f80546001600160a01b038381166001600160a01b0319831681178455604051919092169283917f8be0079c531659141344cd1fd0a4f28419497f9722a3daafe3b4186f6b6457e09190a35050565b80516001600160a01b03811681146200010c575f80fd5b919050565b5f806040838503121562000123575f80fd5b6200012e83620000f5565b91506200013e60208401620000f5565b90509250929050565b60805160a051611910620001c45f395f81816101f901528181610d1d01528181610dd301528181610f7a015261104901525f81816102c701528181610640015281816107060152818161079d015281816109de01528181610aa401528181610b3b01528181610cb7015281816112ae01526113fa01526119105ff3fe608060405260043610610110575f3560e01c8063918d407d1161009d578063e7fb74c711610062578063e7fb74c714610377578063ebdfbce51461038a578063ef706adf146103fe578063f2fde38b1461041d578063fcce48831461043c575f80fd5b8063918d407d14610282578063bc063e1a146102a1578063d56d229d146102b6578063de74e57b146102e9578063e210a72d14610358575f80fd5b8063305a67a8116100e3578063305a67a8146101c95780635c0a02c3146101e8578063715018a614610233578063883efa67146102475780638da5cb5b14610266575f80fd5b8063115bc9361461011457806312e8e2c3146101555780631cc513b11461017657806326232a2e146101b4575b5f80fd5b34801561011f575f80fd5b5061014261012e36600461170b565b5f9081526002602052604090206001015490565b6040519081526020015b60405180910390f35b348015610160575f80fd5b5061017461016f36600461170b565b61046e565b005b348015610181575f80fd5b506101a461019036600461170b565b60046020525f908152604090205460ff1681565b604051901515815260200161014c565b3480156101bf575f80fd5b5061014260015481565b3480156101d4575f80fd5b506101746101e336600461170b565b6104fa565b3480156101f3575f80fd5b5061021b7f000000000000000000000000000000000000000000000000000000000000000081565b6040516001600160a01b03909116815260200161014c565b34801561023e575f80fd5b506101746105c6565b348015610252575f80fd5b50610174610261366004611722565b6105d9565b348015610271575f80fd5b505f546001600160a01b031661021b565b34801561028d575f80fd5b5061017461029c366004611756565b6108fc565b3480156102ac575f80fd5b506101426101f481565b3480156102c1575f80fd5b5061021b7f000000000000000000000000000000000000000000000000000000000000000081565b3480156102f4575f80fd5b5061033161030336600461170b565b600260208190525f91825260409091208054600182015491909201546001600160a01b039092169160ff1683565b604080516001600160a01b039094168452602084019290925215159082015260600161014c565b348015610363575f80fd5b50610174610372366004611784565b610f16565b61017461038536600461170b565b6111bc565b348015610395575f80fd5b506103d96103a4366004611756565b600360209081525f92835260408084209091529082529020805460018201546002909201546001600160a01b03909116919083565b604080516001600160a01b03909416845260208401929092529082015260600161014c565b348015610409575f80fd5b5061017461041836600461170b565b611594565b348015610428575f80fd5b506101746104373660046117ad565b61160c565b348015610447575f80fd5b506101a461045636600461170b565b5f908152600260208190526040909120015460ff1690565b610476611646565b6101f48111156104bf5760405162461bcd60e51b815260206004820152600f60248201526e08ccaca40caf0c6cacac8e640dac2f608b1b60448201526064015b60405180910390fd5b60018190556040518181527f45610d581145924dd7090a5017e5f2b1d6f42213bb2e95707ff86846bbfcb1ca9060200160405180910390a150565b610502611672565b5f818152600260205260409020546001600160a01b031633146105545760405162461bcd60e51b815260206004820152600a6024820152692737ba1039b2b63632b960b11b60448201526064016104b6565b5f81815260026020819052604080832080546001600160a01b031916815560018101849055909101805460ff1916905551829133917ff86e54241e209ee4b38db8e64af9614b083d18f23c32f3293c8a87c6b8bf89439190a36105c360015f805160206118bb83398151915255565b50565b6105ce611646565b6105d75f61168d565b565b6105e1611672565b5f81116106205760405162461bcd60e51b815260206004820152600d60248201526c496e76616c696420707269636560981b60448201526064016104b6565b6040516331a9108f60e11b81526004810183905233906001600160a01b037f00000000000000000000000000000000000000000000000000000000000000001690636352211e90602401602060405180830381865afa158015610685573d5f803e3d5ffd5b505050506040513d601f19601f820116820180604052508101906106a991906117cf565b6001600160a01b0316146106eb5760405162461bcd60e51b81526020600482015260096024820152682737ba1037bbb732b960b91b60448201526064016104b6565b60405163e985e9c560e01b81523360048201523060248201527f00000000000000000000000000000000000000000000000000000000000000006001600160a01b03169063e985e9c590604401602060405180830381865afa158015610753573d5f803e3d5ffd5b505050506040513d601f19601f8201168201806040525081019061077791906117ea565b80610811575060405163020604bf60e21b81526004810183905230906001600160a01b037f0000000000000000000000000000000000000000000000000000000000000000169063081812fc90602401602060405180830381865afa1580156107e2573d5f803e3d5ffd5b505050506040513d601f19601f8201168201806040525081019061080691906117cf565b6001600160a01b0316145b61084c5760405162461bcd60e51b815260206004820152600c60248201526b139bdd08185c1c1c9bdd995960a21b60448201526064016104b6565b6040805160608101825233808252602080830185815260018486018181525f898152600280865290889020965187546001600160a01b0319166001600160a01b03909116178755925191860191909155519301805460ff19169315159390931790925591518381528492917f94e7b934c857a9e3202e8ed9c1f3f96e396b7d2b5885930d2001abcb51ff58fa910160405180910390a36108f860015f805160206118bb83398151915255565b5050565b610904611672565b5f8281526003602090815260408083206001600160a01b03808616855290835292819020815160608101835281549094168452600181015492840183905260020154908301526109815760405162461bcd60e51b815260206004820152600860248201526727379037b33332b960c11b60448201526064016104b6565b428160400151116109be5760405162461bcd60e51b8152602060048201526007602482015266115e1c1a5c995960ca1b60448201526064016104b6565b6040516331a9108f60e11b81526004810184905233906001600160a01b037f00000000000000000000000000000000000000000000000000000000000000001690636352211e90602401602060405180830381865afa158015610a23573d5f803e3d5ffd5b505050506040513d601f19601f82011682018060405250810190610a4791906117cf565b6001600160a01b031614610a895760405162461bcd60e51b81526020600482015260096024820152682737ba1037bbb732b960b91b60448201526064016104b6565b60405163e985e9c560e01b81523360048201523060248201527f00000000000000000000000000000000000000000000000000000000000000006001600160a01b03169063e985e9c590604401602060405180830381865afa158015610af1573d5f803e3d5ffd5b505050506040513d601f19601f82011682018060405250810190610b1591906117ea565b80610baf575060405163020604bf60e21b81526004810184905230906001600160a01b037f0000000000000000000000000000000000000000000000000000000000000000169063081812fc90602401602060405180830381865afa158015610b80573d5f803e3d5ffd5b505050506040513d601f19601f82011682018060405250810190610ba491906117cf565b6001600160a01b0316145b610bea5760405162461bcd60e51b815260206004820152600c60248201526b139bdd08185c1c1c9bdd995960a21b60448201526064016104b6565b5f8381526003602090815260408083206001600160a01b0386168452825280832080546001600160a01b03199081168255600180830186905560029283018690558886528285529285208054909116815580830185905501805460ff19169055549083015161271091610c5c9161181d565b610c66919061183a565b90505f818360200151610c799190611859565b5f86815260046020819052604091829020805460ff1981166001179091559151632142170760e11b815292935060ff90911615916001600160a01b037f000000000000000000000000000000000000000000000000000000000000000016916342842e0e91610cee9133918a918c910161186c565b5f604051808303815f87803b158015610d05575f80fd5b505af1158015610d17573d5f803e3d5ffd5b505050507f00000000000000000000000000000000000000000000000000000000000000006001600160a01b03166323b872dd86610d5c5f546001600160a01b031690565b866040518463ffffffff1660e01b8152600401610d7b9392919061186c565b6020604051808303815f875af1158015610d97573d5f803e3d5ffd5b505050506040513d601f19601f82011682018060405250810190610dbb91906117ea565b506040516323b872dd60e01b81526001600160a01b037f000000000000000000000000000000000000000000000000000000000000000016906323b872dd90610e0c9088903390879060040161186c565b6020604051808303815f875af1158015610e28573d5f803e3d5ffd5b505050506040513d601f19601f82011682018060405250810190610e4c91906117ea565b5085856001600160a01b0316336001600160a01b03167fa6da490df6e8f0e592e795b4d96c5810d8ddfda51c21577adbdd8e1a0fa47a678760200151604051610e9791815260200190565b60405180910390a485336001600160a01b0316866001600160a01b03167fddedf95326dd0bfd05887ad94aa5b515ef8b0e75893107f97283c1f80d2db343876020015185604051610ef49291909182521515602082015260400190565b60405180910390a4505050506108f860015f805160206118bb83398151915255565b610f1e611672565b5f8211610f5d5760405162461bcd60e51b815260206004820152600d60248201526c496e76616c696420707269636560981b60448201526064016104b6565b604051636eb1769f60e11b815233600482015230602482015282907f00000000000000000000000000000000000000000000000000000000000000006001600160a01b03169063dd62ed3e90604401602060405180830381865afa158015610fc7573d5f803e3d5ffd5b505050506040513d601f19601f82011682018060405250810190610feb9190611890565b10156110325760405162461bcd60e51b8152602060048201526016602482015275496e73756666696369656e7420616c6c6f77616e636560501b60448201526064016104b6565b6040516370a0823160e01b815233600482015282907f00000000000000000000000000000000000000000000000000000000000000006001600160a01b0316906370a0823190602401602060405180830381865afa158015611096573d5f803e3d5ffd5b505050506040513d601f19601f820116820180604052508101906110ba9190611890565b10156110ff5760405162461bcd60e51b8152602060048201526014602482015273496e73756666696369656e742062616c616e636560601b60448201526064016104b6565b604080516060810182523381526020810184905290810161112083426118a7565b90525f8481526003602090815260408083203380855290835292819020845181546001600160a01b0319166001600160a01b0390911617815584830151600182015593810151600290940193909355915184815285927f7beddbbf70d8b2a25af77e15d4a173af5f34673a1e7302c7af208aac599dc6db910160405180910390a36111b760015f805160206118bb83398151915255565b505050565b6111c4611672565b5f81815260026020818152604092839020835160608101855281546001600160a01b031681526001820154928101929092529091015460ff1615159181018290529061123f5760405162461bcd60e51b815260206004820152600a602482015269139bdd081b1a5cdd195960b21b60448201526064016104b6565b806020015134101561128a5760405162461bcd60e51b8152602060048201526014602482015273125b9cdd59999a58da595b9d081c185e5b595b9d60621b60448201526064016104b6565b80516040516331a9108f60e11b8152600481018490526001600160a01b03918216917f00000000000000000000000000000000000000000000000000000000000000001690636352211e90602401602060405180830381865afa1580156112f3573d5f803e3d5ffd5b505050506040513d601f19601f8201168201806040525081019061131791906117cf565b6001600160a01b03161461135d5760405162461bcd60e51b815260206004820152600d60248201526c13dddb995c8818da185b99d959609a1b60448201526064016104b6565b5f828152600260208181526040832080546001600160a01b031916815560018082018590559201805460ff191690559054908301516127109161139f9161181d565b6113a9919061183a565b90505f8183602001516113bc9190611859565b5f85815260046020819052604091829020805460ff19811660011790915586519251632142170760e11b815293945060ff1615926001600160a01b037f000000000000000000000000000000000000000000000000000000000000000016926342842e0e9261142f9233918b910161186c565b5f604051808303815f87803b158015611446575f80fd5b505af1158015611458573d5f803e3d5ffd5b5050505061146d5f546001600160a01b031690565b6001600160a01b03166108fc8490811502906040515f60405180830381858888f193505050501580156114a2573d5f803e3d5ffd5b5083516040516001600160a01b039091169083156108fc029084905f818181858888f193505050501580156114d9573d5f803e3d5ffd5b50836020015134111561152257602084015133906108fc906114fb9034611859565b6040518115909202915f818181858888f19350505050158015611520573d5f803e3d5ffd5b505b8351602085015160405187926001600160a01b03169133917fddedf95326dd0bfd05887ad94aa5b515ef8b0e75893107f97283c1f80d2db343916115729187909182521515602082015260400190565b60405180910390a4505050506105c360015f805160206118bb83398151915255565b61159c611672565b5f81815260036020908152604080832033808552925280832080546001600160a01b0319168155600181018490556002018390555183927f871dc347e88ef58454c9f69d734469ed3f59dd31fd0d6b7960d092da71f4454d91a36105c360015f805160206118bb83398151915255565b611614611646565b6001600160a01b03811661163d57604051631e4fbdf760e01b81525f60048201526024016104b6565b6105c38161168d565b5f546001600160a01b031633146105d75760405163118cdaa760e01b81523360048201526024016104b6565b61167a6116dc565b60025f805160206118bb83398151915255565b5f80546001600160a01b038381166001600160a01b0319831681178455604051919092169283917f8be0079c531659141344cd1fd0a4f28419497f9722a3daafe3b4186f6b6457e09190a35050565b5f805160206118bb833981519152546002036105d757604051633ee5aeb560e01b815260040160405180910390fd5b5f6020828403121561171b575f80fd5b5035919050565b5f8060408385031215611733575f80fd5b50508035926020909101359150565b6001600160a01b03811681146105c3575f80fd5b5f8060408385031215611767575f80fd5b82359150602083013561177981611742565b809150509250929050565b5f805f60608486031215611796575f80fd5b505081359360208301359350604090920135919050565b5f602082840312156117bd575f80fd5b81356117c881611742565b9392505050565b5f602082840312156117df575f80fd5b81516117c881611742565b5f602082840312156117fa575f80fd5b815180151581146117c8575f80fd5b634e487b7160e01b5f52601160045260245ffd5b808202811582820484141761183457611834611809565b92915050565b5f8261185457634e487b7160e01b5f52601260045260245ffd5b500490565b8181038181111561183457611834611809565b6001600160a01b039384168152919092166020820152604081019190915260600190565b5f602082840312156118a0575f80fd5b5051919050565b808201808211156118345761183461180956fe9b779b17422d0df92223018b32b4d1fa46e071723d6817e2486d003becc55f00a26469706673582212207e65afa59b1a4f962d1047b7d2891e67ca383ba47f85c3db6248f249d492772f64736f6c63430008180033",
  "devdoc": {
    "errors": {
      "OwnableInvalidOwner(address)": [
        {
          "details": "The owner is not a valid owner account. (eg. `address(0)`)"
        }
      ],
      "OwnableUnauthorizedAccount(address)": [
        {
          "details": "The caller account is not authorized to perform an operation."
        }
      ],
      "ReentrancyGuardReentrantCall()": [
        {
          "details": "Unauthorized reentrant call."
        }
      ]
    },
    "kind": "dev",
    "methods": {
      "owner()": {
        "details": "Returns the address of the current owner."
      },
      "renounceOwnership()": {
        "details": "Leaves the contract without owner. It will not be possible to call `onlyOwner` functions. Can only be called by the current owner. NOTE: Renouncing ownership will leave the contract without an owner, thereby disabling any functionality that is only available to the owner."
      },
      "transferOwnership(address)": {
        "details": "Transfers ownership of the contract to a new account (`newOwner`). Can only be called by the current owner."
      }
    },
    "title": "NNMMarketplaceZeroPlus",
    "version": 1
  },
  "userdoc": {
    "kind": "user",
    "methods": {},
    "notice": "Zero-Liability, Non-Custodial Marketplace - Atomic swaps only - No escrow - NFT stays with owner until sale - Funds stay with buyer until acceptance",
    "version": 1
  },
  "storageLayout": {
    "storage": [
      {
        "astId": 54,
        "contract": "contracts/NNMMarketplaceZeroPlus.sol:NNMMarketplaceZeroPlus",
        "label": "_owner",
        "offset": 0,
        "slot": "0",
        "type": "t_address"
      },
      {
        "astId": 8697,
        "contract": "contracts/NNMMarketplaceZeroPlus.sol:NNMMarketplaceZeroPlus",
        "label": "platformFee",
        "offset": 0,
        "slot": "1",
        "type": "t_uint256"
      },
      {
        "astId": 8719,
        "contract": "contracts/NNMMarketplaceZeroPlus.sol:NNMMarketplaceZeroPlus",
        "label": "listings",
        "offset": 0,
        "slot": "2",
        "type": "t_mapping(t_uint256,t_struct(Listing)8707_storage)"
      },
      {
        "astId": 8726,
        "contract": "contracts/NNMMarketplaceZeroPlus.sol:NNMMarketplaceZeroPlus",
        "label": "offers",
        "offset": 0,
        "slot": "3",
        "type": "t_mapping(t_uint256,t_mapping(t_address,t_struct(Offer)8714_storage))"
      },
      {
        "astId": 8730,
        "contract": "contracts/NNMMarketplaceZeroPlus.sol:NNMMarketplaceZeroPlus",
        "label": "hasSoldBefore",
        "offset": 0,
        "slot": "4",
        "type": "t_mapping(t_uint256,t_bool)"
      }
    ],
    "types": {
      "t_address": {
        "encoding": "inplace",
        "label": "address",
        "numberOfBytes": "20"
      },
      "t_bool": {
        "encoding": "inplace",
        "label": "bool",
        "numberOfBytes": "1"
      },
      "t_mapping(t_address,t_struct(Offer)8714_storage)": {
        "encoding": "mapping",
        "key": "t_address",
        "label": "mapping(address => struct NNMMarketplaceZeroPlus.Offer)",
        "numberOfBytes": "32",
        "value": "t_struct(Offer)8714_storage"
      },
      "t_mapping(t_uint256,t_bool)": {
        "encoding": "mapping",
        "key": "t_uint256",
        "label": "mapping(uint256 => bool)",
        "numberOfBytes": "32",
        "value": "t_bool"
      },
      "t_mapping(t_uint256,t_mapping(t_address,t_struct(Offer)8714_storage))": {
        "encoding": "mapping",
        "key": "t_uint256",
        "label": "mapping(uint256 => mapping(address => struct NNMMarketplaceZeroPlus.Offer))",
        "numberOfBytes": "32",
        "value": "t_mapping(t_address,t_struct(Offer)8714_storage)"
      },
      "t_mapping(t_uint256,t_struct(Listing)8707_storage)": {
        "encoding": "mapping",
        "key": "t_uint256",
        "label": "mapping(uint256 => struct NNMMarketplaceZeroPlus.Listing)",
        "numberOfBytes": "32",
        "value": "t_struct(Listing)8707_storage"
      },
      "t_struct(Listing)8707_storage": {
        "encoding": "inplace",
        "label": "struct NNMMarketplaceZeroPlus.Listing",
        "members": [
          {
            "astId": 8702,
            "contract": "contracts/NNMMarketplaceZeroPlus.sol:NNMMarketplaceZeroPlus",
            "label": "seller",
            "offset": 0,
            "slot": "0",
            "type": "t_address"
          },
          {
            "astId": 8704,
            "contract": "contracts/NNMMarketplaceZeroPlus.sol:NNMMarketplaceZeroPlus",
            "label": "price",
            "offset": 0,
            "slot": "1",
            "type": "t_uint256"
          },
          {
            "astId": 8706,
            "contract": "contracts/NNMMarketplaceZeroPlus.sol:NNMMarketplaceZeroPlus",
            "label": "exists",
            "offset": 0,
            "slot": "2",
            "type": "t_bool"
          }
        ],
        "numberOfBytes": "96"
      },
      "t_struct(Offer)8714_storage": {
        "encoding": "inplace",
        "label": "struct NNMMarketplaceZeroPlus.Offer",
        "members": [
          {
            "astId": 8709,
            "contract": "contracts/NNMMarketplaceZeroPlus.sol:NNMMarketplaceZeroPlus",
            "label": "bidder",
            "offset": 0,
            "slot": "0",
            "type": "t_address"
          },
          {
            "astId": 8711,
            "contract": "contracts/NNMMarketplaceZeroPlus.sol:NNMMarketplaceZeroPlus",
            "label": "price",
            "offset": 0,
            "slot": "1",
            "type": "t_uint256"
          },
          {
            "astId": 8713,
            "contract": "contracts/NNMMarketplaceZeroPlus.sol:NNMMarketplaceZeroPlus",
            "label": "expiration",
            "offset": 0,
            "slot": "2",
            "type": "t_uint256"
          }
        ],
        "numberOfBytes": "96"
      },
      "t_uint256": {
        "encoding": "inplace",
        "label": "uint256",
        "numberOfBytes": "32"
      }
    }
  }
}