{
  "address": "0xBCb1db4D779287a21c250Dde5e28C746fC143812",
  "abi": [
    {
      "inputs": [],
      "stateMutability": "nonpayable",
      "type": "constructor"
    },
    {
      "inputs": [
        {
          "internalType": "uint256",
          "name": "numerator",
          "type": "uint256"
        },
        {
          "internalType": "uint256",
          "name": "denominator",
          "type": "uint256"
        }
      ],
      "name": "ERC2981InvalidDefaultRoyalty",
      "type": "error"
    },
    {
      "inputs": [
        {
          "internalType": "address",
          "name": "receiver",
          "type": "address"
        }
      ],
      "name": "ERC2981InvalidDefaultRoyaltyReceiver",
      "type": "error"
    },
    {
      "inputs": [
        {
          "internalType": "uint256",
          "name": "tokenId",
          "type": "uint256"
        },
        {
          "internalType": "uint256",
          "name": "numerator",
          "type": "uint256"
        },
        {
          "internalType": "uint256",
          "name": "denominator",
          "type": "uint256"
        }
      ],
      "name": "ERC2981InvalidTokenRoyalty",
      "type": "error"
    },
    {
      "inputs": [
        {
          "internalType": "uint256",
          "name": "tokenId",
          "type": "uint256"
        },
        {
          "internalType": "address",
          "name": "receiver",
          "type": "address"
        }
      ],
      "name": "ERC2981InvalidTokenRoyaltyReceiver",
      "type": "error"
    },
    {
      "inputs": [],
      "name": "ERC721EnumerableForbiddenBatchMint",
      "type": "error"
    },
    {
      "inputs": [
        {
          "internalType": "address",
          "name": "sender",
          "type": "address"
        },
        {
          "internalType": "uint256",
          "name": "tokenId",
          "type": "uint256"
        },
        {
          "internalType": "address",
          "name": "owner",
          "type": "address"
        }
      ],
      "name": "ERC721IncorrectOwner",
      "type": "error"
    },
    {
      "inputs": [
        {
          "internalType": "address",
          "name": "operator",
          "type": "address"
        },
        {
          "internalType": "uint256",
          "name": "tokenId",
          "type": "uint256"
        }
      ],
      "name": "ERC721InsufficientApproval",
      "type": "error"
    },
    {
      "inputs": [
        {
          "internalType": "address",
          "name": "approver",
          "type": "address"
        }
      ],
      "name": "ERC721InvalidApprover",
      "type": "error"
    },
    {
      "inputs": [
        {
          "internalType": "address",
          "name": "operator",
          "type": "address"
        }
      ],
      "name": "ERC721InvalidOperator",
      "type": "error"
    },
    {
      "inputs": [
        {
          "internalType": "address",
          "name": "owner",
          "type": "address"
        }
      ],
      "name": "ERC721InvalidOwner",
      "type": "error"
    },
    {
      "inputs": [
        {
          "internalType": "address",
          "name": "receiver",
          "type": "address"
        }
      ],
      "name": "ERC721InvalidReceiver",
      "type": "error"
    },
    {
      "inputs": [
        {
          "internalType": "address",
          "name": "sender",
          "type": "address"
        }
      ],
      "name": "ERC721InvalidSender",
      "type": "error"
    },
    {
      "inputs": [
        {
          "internalType": "uint256",
          "name": "tokenId",
          "type": "uint256"
        }
      ],
      "name": "ERC721NonexistentToken",
      "type": "error"
    },
    {
      "inputs": [
        {
          "internalType": "address",
          "name": "owner",
          "type": "address"
        },
        {
          "internalType": "uint256",
          "name": "index",
          "type": "uint256"
        }
      ],
      "name": "ERC721OutOfBoundsIndex",
      "type": "error"
    },
    {
      "inputs": [],
      "name": "EnforcedPause",
      "type": "error"
    },
    {
      "inputs": [],
      "name": "ExpectedPause",
      "type": "error"
    },
    {
      "inputs": [
        {
          "internalType": "address",
          "name": "owner",
          "type": "address"
        }
      ],
      "name": "OwnableInvalidOwner",
      "type": "error"
    },
    {
      "inputs": [
        {
          "internalType": "address",
          "name": "account",
          "type": "address"
        }
      ],
      "name": "OwnableUnauthorizedAccount",
      "type": "error"
    },
    {
      "inputs": [],
      "name": "ReentrancyGuardReentrantCall",
      "type": "error"
    },
    {
      "anonymous": false,
      "inputs": [
        {
          "indexed": true,
          "internalType": "address",
          "name": "owner",
          "type": "address"
        },
        {
          "indexed": true,
          "internalType": "address",
          "name": "approved",
          "type": "address"
        },
        {
          "indexed": true,
          "internalType": "uint256",
          "name": "tokenId",
          "type": "uint256"
        }
      ],
      "name": "Approval",
      "type": "event"
    },
    {
      "anonymous": false,
      "inputs": [
        {
          "indexed": true,
          "internalType": "address",
          "name": "owner",
          "type": "address"
        },
        {
          "indexed": true,
          "internalType": "address",
          "name": "operator",
          "type": "address"
        },
        {
          "indexed": false,
          "internalType": "bool",
          "name": "approved",
          "type": "bool"
        }
      ],
      "name": "ApprovalForAll",
      "type": "event"
    },
    {
      "anonymous": false,
      "inputs": [
        {
          "indexed": false,
          "internalType": "uint256",
          "name": "_fromTokenId",
          "type": "uint256"
        },
        {
          "indexed": false,
          "internalType": "uint256",
          "name": "_toTokenId",
          "type": "uint256"
        }
      ],
      "name": "BatchMetadataUpdate",
      "type": "event"
    },
    {
      "anonymous": false,
      "inputs": [
        {
          "indexed": false,
          "internalType": "uint256",
          "name": "_tokenId",
          "type": "uint256"
        }
      ],
      "name": "MetadataUpdate",
      "type": "event"
    },
    {
      "anonymous": false,
      "inputs": [
        {
          "indexed": true,
          "internalType": "uint256",
          "name": "tokenId",
          "type": "uint256"
        },
        {
          "indexed": false,
          "internalType": "string",
          "name": "name",
          "type": "string"
        },
        {
          "indexed": false,
          "internalType": "enum YourContract.Tier",
          "name": "tier",
          "type": "uint8"
        },
        {
          "indexed": true,
          "internalType": "address",
          "name": "owner",
          "type": "address"
        },
        {
          "indexed": false,
          "internalType": "uint256",
          "name": "timestamp",
          "type": "uint256"
        }
      ],
      "name": "NameMinted",
      "type": "event"
    },
    {
      "anonymous": false,
      "inputs": [
        {
          "indexed": true,
          "internalType": "address",
          "name": "previousOwner",
          "type": "address"
        },
        {
          "indexed": true,
          "internalType": "address",
          "name": "newOwner",
          "type": "address"
        }
      ],
      "name": "OwnershipTransferred",
      "type": "event"
    },
    {
      "anonymous": false,
      "inputs": [
        {
          "indexed": false,
          "internalType": "address",
          "name": "account",
          "type": "address"
        }
      ],
      "name": "Paused",
      "type": "event"
    },
    {
      "anonymous": false,
      "inputs": [
        {
          "indexed": true,
          "internalType": "address",
          "name": "from",
          "type": "address"
        },
        {
          "indexed": true,
          "internalType": "address",
          "name": "to",
          "type": "address"
        },
        {
          "indexed": true,
          "internalType": "uint256",
          "name": "tokenId",
          "type": "uint256"
        }
      ],
      "name": "Transfer",
      "type": "event"
    },
    {
      "anonymous": false,
      "inputs": [
        {
          "indexed": false,
          "internalType": "address",
          "name": "account",
          "type": "address"
        }
      ],
      "name": "Unpaused",
      "type": "event"
    },
    {
      "inputs": [],
      "name": "AUTHORIZED_MINT_LIMIT",
      "outputs": [
        {
          "internalType": "uint256",
          "name": "",
          "type": "uint256"
        }
      ],
      "stateMutability": "view",
      "type": "function"
    },
    {
      "inputs": [],
      "name": "LEGAL_DISCLAIMER",
      "outputs": [
        {
          "internalType": "string",
          "name": "",
          "type": "string"
        }
      ],
      "stateMutability": "view",
      "type": "function"
    },
    {
      "inputs": [
        {
          "internalType": "address",
          "name": "to",
          "type": "address"
        },
        {
          "internalType": "uint256",
          "name": "tokenId",
          "type": "uint256"
        }
      ],
      "name": "approve",
      "outputs": [],
      "stateMutability": "nonpayable",
      "type": "function"
    },
    {
      "inputs": [
        {
          "internalType": "string",
          "name": "_name",
          "type": "string"
        },
        {
          "internalType": "enum YourContract.Tier",
          "name": "_tier",
          "type": "uint8"
        },
        {
          "internalType": "string",
          "name": "_tokenURI",
          "type": "string"
        }
      ],
      "name": "authorizedMint",
      "outputs": [],
      "stateMutability": "nonpayable",
      "type": "function"
    },
    {
      "inputs": [
        {
          "internalType": "address",
          "name": "",
          "type": "address"
        }
      ],
      "name": "authorizedMintCount",
      "outputs": [
        {
          "internalType": "uint256",
          "name": "",
          "type": "uint256"
        }
      ],
      "stateMutability": "view",
      "type": "function"
    },
    {
      "inputs": [
        {
          "internalType": "address",
          "name": "",
          "type": "address"
        }
      ],
      "name": "authorizedMinters",
      "outputs": [
        {
          "internalType": "bool",
          "name": "",
          "type": "bool"
        }
      ],
      "stateMutability": "view",
      "type": "function"
    },
    {
      "inputs": [
        {
          "internalType": "address",
          "name": "owner",
          "type": "address"
        }
      ],
      "name": "balanceOf",
      "outputs": [
        {
          "internalType": "uint256",
          "name": "",
          "type": "uint256"
        }
      ],
      "stateMutability": "view",
      "type": "function"
    },
    {
      "inputs": [
        {
          "internalType": "uint256",
          "name": "tokenId",
          "type": "uint256"
        }
      ],
      "name": "getApproved",
      "outputs": [
        {
          "internalType": "address",
          "name": "",
          "type": "address"
        }
      ],
      "stateMutability": "view",
      "type": "function"
    },
    {
      "inputs": [
        {
          "internalType": "uint256",
          "name": "usdAmount",
          "type": "uint256"
        }
      ],
      "name": "getMaticCost",
      "outputs": [
        {
          "internalType": "uint256",
          "name": "",
          "type": "uint256"
        }
      ],
      "stateMutability": "view",
      "type": "function"
    },
    {
      "inputs": [
        {
          "internalType": "address",
          "name": "owner",
          "type": "address"
        },
        {
          "internalType": "address",
          "name": "operator",
          "type": "address"
        }
      ],
      "name": "isApprovedForAll",
      "outputs": [
        {
          "internalType": "bool",
          "name": "",
          "type": "bool"
        }
      ],
      "stateMutability": "view",
      "type": "function"
    },
    {
      "inputs": [
        {
          "internalType": "string",
          "name": "_name",
          "type": "string"
        },
        {
          "internalType": "enum YourContract.Tier",
          "name": "_tier",
          "type": "uint8"
        },
        {
          "internalType": "string",
          "name": "_tokenURI",
          "type": "string"
        }
      ],
      "name": "mintPublic",
      "outputs": [],
      "stateMutability": "payable",
      "type": "function"
    },
    {
      "inputs": [],
      "name": "name",
      "outputs": [
        {
          "internalType": "string",
          "name": "",
          "type": "string"
        }
      ],
      "stateMutability": "view",
      "type": "function"
    },
    {
      "inputs": [
        {
          "internalType": "uint256",
          "name": "",
          "type": "uint256"
        }
      ],
      "name": "nameRecords",
      "outputs": [
        {
          "internalType": "string",
          "name": "name",
          "type": "string"
        },
        {
          "internalType": "enum YourContract.Tier",
          "name": "tier",
          "type": "uint8"
        },
        {
          "internalType": "uint256",
          "name": "mintTime",
          "type": "uint256"
        }
      ],
      "stateMutability": "view",
      "type": "function"
    },
    {
      "inputs": [],
      "name": "owner",
      "outputs": [
        {
          "internalType": "address",
          "name": "",
          "type": "address"
        }
      ],
      "stateMutability": "view",
      "type": "function"
    },
    {
      "inputs": [
        {
          "internalType": "uint256",
          "name": "tokenId",
          "type": "uint256"
        }
      ],
      "name": "ownerOf",
      "outputs": [
        {
          "internalType": "address",
          "name": "",
          "type": "address"
        }
      ],
      "stateMutability": "view",
      "type": "function"
    },
    {
      "inputs": [],
      "name": "paused",
      "outputs": [
        {
          "internalType": "bool",
          "name": "",
          "type": "bool"
        }
      ],
      "stateMutability": "view",
      "type": "function"
    },
    {
      "inputs": [],
      "name": "priceElite",
      "outputs": [
        {
          "internalType": "uint256",
          "name": "",
          "type": "uint256"
        }
      ],
      "stateMutability": "view",
      "type": "function"
    },
    {
      "inputs": [],
      "name": "priceFeed",
      "outputs": [
        {
          "internalType": "contract AggregatorV3Interface",
          "name": "",
          "type": "address"
        }
      ],
      "stateMutability": "view",
      "type": "function"
    },
    {
      "inputs": [],
      "name": "priceFounder",
      "outputs": [
        {
          "internalType": "uint256",
          "name": "",
          "type": "uint256"
        }
      ],
      "stateMutability": "view",
      "type": "function"
    },
    {
      "inputs": [],
      "name": "priceImmortal",
      "outputs": [
        {
          "internalType": "uint256",
          "name": "",
          "type": "uint256"
        }
      ],
      "stateMutability": "view",
      "type": "function"
    },
    {
      "inputs": [
        {
          "internalType": "bytes32",
          "name": "",
          "type": "bytes32"
        }
      ],
      "name": "registeredNames",
      "outputs": [
        {
          "internalType": "bool",
          "name": "",
          "type": "bool"
        }
      ],
      "stateMutability": "view",
      "type": "function"
    },
    {
      "inputs": [],
      "name": "renounceOwnership",
      "outputs": [],
      "stateMutability": "nonpayable",
      "type": "function"
    },
    {
      "inputs": [
        {
          "internalType": "string",
          "name": "_name",
          "type": "string"
        },
        {
          "internalType": "enum YourContract.Tier",
          "name": "_tier",
          "type": "uint8"
        },
        {
          "internalType": "string",
          "name": "_tokenURI",
          "type": "string"
        }
      ],
      "name": "reserveName",
      "outputs": [],
      "stateMutability": "nonpayable",
      "type": "function"
    },
    {
      "inputs": [
        {
          "internalType": "uint256",
          "name": "tokenId",
          "type": "uint256"
        },
        {
          "internalType": "uint256",
          "name": "salePrice",
          "type": "uint256"
        }
      ],
      "name": "royaltyInfo",
      "outputs": [
        {
          "internalType": "address",
          "name": "receiver",
          "type": "address"
        },
        {
          "internalType": "uint256",
          "name": "amount",
          "type": "uint256"
        }
      ],
      "stateMutability": "view",
      "type": "function"
    },
    {
      "inputs": [
        {
          "internalType": "address",
          "name": "from",
          "type": "address"
        },
        {
          "internalType": "address",
          "name": "to",
          "type": "address"
        },
        {
          "internalType": "uint256",
          "name": "tokenId",
          "type": "uint256"
        }
      ],
      "name": "safeTransferFrom",
      "outputs": [],
      "stateMutability": "nonpayable",
      "type": "function"
    },
    {
      "inputs": [
        {
          "internalType": "address",
          "name": "from",
          "type": "address"
        },
        {
          "internalType": "address",
          "name": "to",
          "type": "address"
        },
        {
          "internalType": "uint256",
          "name": "tokenId",
          "type": "uint256"
        },
        {
          "internalType": "bytes",
          "name": "data",
          "type": "bytes"
        }
      ],
      "name": "safeTransferFrom",
      "outputs": [],
      "stateMutability": "nonpayable",
      "type": "function"
    },
    {
      "inputs": [
        {
          "internalType": "address",
          "name": "operator",
          "type": "address"
        },
        {
          "internalType": "bool",
          "name": "approved",
          "type": "bool"
        }
      ],
      "name": "setApprovalForAll",
      "outputs": [],
      "stateMutability": "nonpayable",
      "type": "function"
    },
    {
      "inputs": [
        {
          "internalType": "address",
          "name": "_wallet",
          "type": "address"
        },
        {
          "internalType": "bool",
          "name": "_status",
          "type": "bool"
        }
      ],
      "name": "setAuthorizedMinter",
      "outputs": [],
      "stateMutability": "nonpayable",
      "type": "function"
    },
    {
      "inputs": [
        {
          "internalType": "uint256",
          "name": "_immortal",
          "type": "uint256"
        },
        {
          "internalType": "uint256",
          "name": "_elite",
          "type": "uint256"
        },
        {
          "internalType": "uint256",
          "name": "_founder",
          "type": "uint256"
        }
      ],
      "name": "setPrices",
      "outputs": [],
      "stateMutability": "nonpayable",
      "type": "function"
    },
    {
      "inputs": [
        {
          "internalType": "bytes4",
          "name": "interfaceId",
          "type": "bytes4"
        }
      ],
      "name": "supportsInterface",
      "outputs": [
        {
          "internalType": "bool",
          "name": "",
          "type": "bool"
        }
      ],
      "stateMutability": "view",
      "type": "function"
    },
    {
      "inputs": [],
      "name": "symbol",
      "outputs": [
        {
          "internalType": "string",
          "name": "",
          "type": "string"
        }
      ],
      "stateMutability": "view",
      "type": "function"
    },
    {
      "inputs": [
        {
          "internalType": "uint256",
          "name": "index",
          "type": "uint256"
        }
      ],
      "name": "tokenByIndex",
      "outputs": [
        {
          "internalType": "uint256",
          "name": "",
          "type": "uint256"
        }
      ],
      "stateMutability": "view",
      "type": "function"
    },
    {
      "inputs": [
        {
          "internalType": "address",
          "name": "owner",
          "type": "address"
        },
        {
          "internalType": "uint256",
          "name": "index",
          "type": "uint256"
        }
      ],
      "name": "tokenOfOwnerByIndex",
      "outputs": [
        {
          "internalType": "uint256",
          "name": "",
          "type": "uint256"
        }
      ],
      "stateMutability": "view",
      "type": "function"
    },
    {
      "inputs": [
        {
          "internalType": "uint256",
          "name": "tokenId",
          "type": "uint256"
        }
      ],
      "name": "tokenURI",
      "outputs": [
        {
          "internalType": "string",
          "name": "",
          "type": "string"
        }
      ],
      "stateMutability": "view",
      "type": "function"
    },
    {
      "inputs": [],
      "name": "totalSupply",
      "outputs": [
        {
          "internalType": "uint256",
          "name": "",
          "type": "uint256"
        }
      ],
      "stateMutability": "view",
      "type": "function"
    },
    {
      "inputs": [
        {
          "internalType": "address",
          "name": "from",
          "type": "address"
        },
        {
          "internalType": "address",
          "name": "to",
          "type": "address"
        },
        {
          "internalType": "uint256",
          "name": "tokenId",
          "type": "uint256"
        }
      ],
      "name": "transferFrom",
      "outputs": [],
      "stateMutability": "nonpayable",
      "type": "function"
    },
    {
      "inputs": [
        {
          "internalType": "address",
          "name": "newOwner",
          "type": "address"
        }
      ],
      "name": "transferOwnership",
      "outputs": [],
      "stateMutability": "nonpayable",
      "type": "function"
    },
    {
      "inputs": [],
      "name": "withdraw",
      "outputs": [],
      "stateMutability": "nonpayable",
      "type": "function"
    }
  ],
  "transactionHash": "0x65cb1b63fd40cd7b9ea8972671dde17d96b361dd6b78a841e9427e240c035261",
  "args": [],
  "numDeployments": 1,
  "solcInputHash": "9c903203e0c06b846ecfac6533f58c79",
  "bytecode": "0x60806040526802b5e3af16b1880000600f556801a055690d9db80000601055678ac7230489e8000060115534801562000036575f80fd5b50336040518060400160405280601381526020017f4e4e4d20536f7665726569676e20417373657400000000000000000000000000815250604051806040016040528060038152602001624e4e4d60e81b815250815f90816200009a9190620002e2565b506001620000a98282620002e2565b5050506001600160a01b038116620000db57604051631e4fbdf760e01b81525f60048201526024015b60405180910390fd5b620000e68162000145565b5060017f9b779b17422d0df92223018b32b4d1fa46e071723d6817e2486d003becc55f0055600e80546001600160a01b03191673ab594600376ec9fd91f8e885dadf0ce036862de01790556200013f336101f46200019e565b620003ae565b600b80546001600160a01b03838116610100818102610100600160a81b031985161790945560405193909204169182907f8be0079c531659141344cd1fd0a4f28419497f9722a3daafe3b4186f6b6457e0905f90a35050565b6127106001600160601b038216811015620001df57604051636f483d0960e01b81526001600160601b038316600482015260248101829052604401620000d2565b6001600160a01b0383166200020a57604051635b6cc80560e11b81525f6004820152602401620000d2565b50604080518082019091526001600160a01b039092168083526001600160601b039091166020909201829052600160a01b90910217600c55565b634e487b7160e01b5f52604160045260245ffd5b600181811c908216806200026d57607f821691505b6020821081036200028c57634e487b7160e01b5f52602260045260245ffd5b50919050565b601f821115620002dd57805f5260205f20601f840160051c81016020851015620002b95750805b601f840160051c820191505b81811015620002da575f8155600101620002c5565b50505b505050565b81516001600160401b03811115620002fe57620002fe62000244565b62000316816200030f845462000258565b8462000292565b602080601f8311600181146200034c575f8415620003345750858301515b5f19600386901b1c1916600185901b178555620003a6565b5f85815260208120601f198616915b828110156200037c578886015182559484019460019091019084016200035b565b50858210156200039a57878501515f19600388901b60f8161c191681555b505060018460011b0185555b505050505050565b61289e80620003bc5f395ff3fe60806040526004361061021d575f3560e01c8063741bef1a1161011e578063b88d4fde116100a8578063e985e9c51161006d578063e985e9c514610658578063ed58bad814610677578063eef2cf0014610696578063f2fde38b146106a9578063f52914d8146106c8575f80fd5b8063b88d4fde146105ae578063bc826313146105cd578063c87b56dd146105fb578063d013e13a1461061a578063e1faa2c214610639575f80fd5b8063a22cb465116100ee578063a22cb465146104f8578063a83a11f714610517578063a88fe42d14610542578063aa2fe91b14610561578063ac75fbf21461058f575f80fd5b8063741bef1a1461048e578063854c6936146104ad5780638da5cb5b146104c257806395d89b41146104e4575f80fd5b806338f6ae54116101aa5780635c975abb1161016f5780635c975abb146104115780636352211e1461042857806370a082311461044757806370e4977d14610466578063715018a61461047a575f80fd5b806338f6ae54146103965780633ccfd60b146103ab57806340675a22146103bf57806342842e0e146103d35780634f6ccce7146103f2575f80fd5b806318160ddd116101f057806318160ddd146102ce57806323b872dd146102ec57806325b9535f1461030b5780632a55205a146103395780632f745c5914610377575f80fd5b806301ffc9a71461022157806306fdde0314610255578063081812fc14610276578063095ea7b3146102ad575b5f80fd5b34801561022c575f80fd5b5061024061023b366004612095565b6106dd565b60405190151581526020015b60405180910390f35b348015610260575f80fd5b506102696106ed565b60405161024c91906120fd565b348015610281575f80fd5b5061029561029036600461210f565b61077c565b6040516001600160a01b03909116815260200161024c565b3480156102b8575f80fd5b506102cc6102c7366004612141565b6107a3565b005b3480156102d9575f80fd5b506009545b60405190815260200161024c565b3480156102f7575f80fd5b506102cc610306366004612169565b6107b2565b348015610316575f80fd5b5061024061032536600461210f565b60146020525f908152604090205460ff1681565b348015610344575f80fd5b506103586103533660046121a2565b610840565b604080516001600160a01b03909316835260208301919091520161024c565b348015610382575f80fd5b506102de610391366004612141565b6108c3565b3480156103a1575f80fd5b506102de600f5481565b3480156103b6575f80fd5b506102cc610926565b3480156103ca575f80fd5b50610269610a0a565b3480156103de575f80fd5b506102cc6103ed366004612169565b610a29565b3480156103fd575f80fd5b506102de61040c36600461210f565b610a48565b34801561041c575f80fd5b50600b5460ff16610240565b348015610433575f80fd5b5061029561044236600461210f565b610a9d565b348015610452575f80fd5b506102de6104613660046121c2565b610aa7565b348015610471575f80fd5b506102de60c881565b348015610485575f80fd5b506102cc610aec565b348015610499575f80fd5b50600e54610295906001600160a01b031681565b3480156104b8575f80fd5b506102de60115481565b3480156104cd575f80fd5b50600b5461010090046001600160a01b0316610295565b3480156104ef575f80fd5b50610269610aff565b348015610503575f80fd5b506102cc6105123660046121db565b610b0e565b348015610522575f80fd5b506102de6105313660046121c2565b60166020525f908152604090205481565b34801561054d575f80fd5b506102cc61055c366004612214565b610b19565b34801561056c575f80fd5b5061024061057b3660046121c2565b60156020525f908152604090205460ff1681565b34801561059a575f80fd5b506102cc6105a93660046122e2565b610b2f565b3480156105b9575f80fd5b506102cc6105c8366004612358565b610c28565b3480156105d8575f80fd5b506105ec6105e736600461210f565b610c40565b60405161024c939291906123e3565b348015610606575f80fd5b5061026961061536600461210f565b610ceb565b348015610625575f80fd5b506102de61063436600461210f565b610cf6565b348015610644575f80fd5b506102cc6106533660046122e2565b610de2565b348015610663575f80fd5b50610240610672366004612424565b610e02565b348015610682575f80fd5b506102cc6106913660046121db565b610e2f565b6102cc6106a43660046122e2565b610e61565b3480156106b4575f80fd5b506102cc6106c33660046121c2565b611023565b3480156106d3575f80fd5b506102de60105481565b5f6106e782611060565b92915050565b60605f80546106fb90612455565b80601f016020809104026020016040519081016040528092919081815260200182805461072790612455565b80156107725780601f1061074957610100808354040283529160200191610772565b820191905f5260205f20905b81548152906001019060200180831161075557829003601f168201915b5050505050905090565b5f61078682611084565b505f828152600460205260409020546001600160a01b03166106e7565b6107ae8282336110bc565b5050565b6001600160a01b0382166107e057604051633250574960e11b81525f60048201526024015b60405180910390fd5b5f6107ec8383336110c9565b9050836001600160a01b0316816001600160a01b03161461083a576040516364283d7b60e01b81526001600160a01b03808616600483015260248201849052821660448201526064016107d7565b50505050565b5f828152600d6020526040812080548291906001600160a01b03811690600160a01b90046001600160601b031681610893575050600c546001600160a01b03811690600160a01b90046001600160601b03165b5f6127106108aa6001600160601b038416896124a1565b6108b491906124b8565b92989297509195505050505050565b5f6108cd83610aa7565b82106108fe5760405163295f44f760e21b81526001600160a01b0384166004820152602481018390526044016107d7565b506001600160a01b03919091165f908152600760209081526040808320938352929052205490565b61092e6110dd565b47806109735760405162461bcd60e51b81526020600482015260146024820152734e6f2066756e647320746f20776974686472617760601b60448201526064016107d7565b600b546040515f9161010090046001600160a01b03169083908381818185875af1925050503d805f81146109c2576040519150601f19603f3d011682016040523d82523d5f602084013e6109c7565b606091505b50509050806107ae5760405162461bcd60e51b815260206004820152600f60248201526e15da5d1a191c985dc819985a5b1959608a1b60448201526064016107d7565b6040518061012001604052806101008152602001612749610100913981565b610a4383838360405180602001604052805f815250610c28565b505050565b5f610a5260095490565b8210610a7a5760405163295f44f760e21b81525f6004820152602481018390526044016107d7565b60098281548110610a8d57610a8d6124d7565b905f5260205f2001549050919050565b5f6106e782611084565b5f6001600160a01b038216610ad1576040516322718ad960e21b81525f60048201526024016107d7565b506001600160a01b03165f9081526003602052604090205490565b610af46110dd565b610afd5f611110565b565b6060600180546106fb90612455565b6107ae338383611169565b610b216110dd565b600f92909255601055601155565b610b37611207565b335f9081526015602052604090205460ff16610b865760405162461bcd60e51b815260206004820152600e60248201526d139bdd08185d5d1a1bdc9a5e995960921b60448201526064016107d7565b335f9081526016602052604090205460c811610bd95760405162461bcd60e51b8152602060048201526012602482015271135a5b9d081b1a5b5a5d081c995858da195960721b60448201526064016107d7565b5f610be384611222565b335f908152601660205260408120805492935090610c00836124eb565b9190505550610c118184338561142b565b50610a4360015f8051602061284983398151915255565b610c338484846107b2565b61083a33858585856115bc565b60136020525f9081526040902080548190610c5a90612455565b80601f0160208091040260200160405190810160405280929190818152602001828054610c8690612455565b8015610cd15780601f10610ca857610100808354040283529160200191610cd1565b820191905f5260205f20905b815481529060010190602001808311610cb457829003601f168201915b505050506001830154600290930154919260ff1691905083565b60606106e7826116e4565b5f80600e5f9054906101000a90046001600160a01b03166001600160a01b031663feaf968c6040518163ffffffff1660e01b815260040160a060405180830381865afa158015610d48573d5f803e3d5ffd5b505050506040513d601f19601f82011682018060405250810190610d6c919061251c565b5050509150505f8113610db05760405162461bcd60e51b815260206004820152600c60248201526b27b930b1b6329032b93937b960a11b60448201526064016107d7565b610dbf816402540be4006124a1565b610dd184670de0b6b3a76400006124a1565b610ddb91906124b8565b9392505050565b610dea6110dd565b5f610df484611222565b905061083a8184338561142b565b6001600160a01b039182165f90815260056020908152604080832093909416825291909152205460ff1690565b610e376110dd565b6001600160a01b03919091165f908152601560205260409020805460ff1916911515919091179055565b610e69611207565b610e716117e7565b5f80836002811115610e8557610e856123cf565b03610e935750600f54610f0e565b6001836002811115610ea757610ea76123cf565b03610eb55750601054610f0e565b6002836002811115610ec957610ec96123cf565b03610ed75750601154610f0e565b60405162461bcd60e51b815260206004820152600c60248201526b24b73b30b634b2103a34b2b960a11b60448201526064016107d7565b5f610f1882610cf6565b905080341015610f5d5760405162461bcd60e51b815260206004820152601060248201526f125b9cdd59999a58da595b9d081413d360821b60448201526064016107d7565b5f610f6786611222565b9050610f758186338761142b565b8134111561100a575f33610f898434612568565b6040515f81818185875af1925050503d805f8114610fc2576040519150601f19603f3d011682016040523d82523d5f602084013e610fc7565b606091505b50509050806110085760405162461bcd60e51b815260206004820152600d60248201526c1499599d5b990819985a5b1959609a1b60448201526064016107d7565b505b505050610a4360015f8051602061284983398151915255565b61102b6110dd565b6001600160a01b03811661105457604051631e4fbdf760e01b81525f60048201526024016107d7565b61105d81611110565b50565b5f6001600160e01b0319821663152a902d60e11b14806106e757506106e78261180b565b5f818152600260205260408120546001600160a01b0316806106e757604051637e27328960e01b8152600481018490526024016107d7565b610a43838383600161182f565b5f6110d5848484611933565b949350505050565b600b546001600160a01b03610100909104163314610afd5760405163118cdaa760e01b81523360048201526024016107d7565b600b80546001600160a01b03838116610100818102610100600160a81b031985161790945560405193909204169182907f8be0079c531659141344cd1fd0a4f28419497f9722a3daafe3b4186f6b6457e0905f90a35050565b6001600160a01b03821661119b57604051630b61174360e31b81526001600160a01b03831660048201526024016107d7565b6001600160a01b038381165f81815260056020908152604080832094871680845294825291829020805460ff191686151590811790915591519182527f17307eab39ab6107e8899845ad3d59bd9653f200f220920489ca2b5937696c31910160405180910390a3505050565b61120f6119fe565b60025f8051602061284983398151915255565b60605f829050600281511015801561123c57506028815111155b6112795760405162461bcd60e51b815260206004820152600e60248201526d092dcecc2d8d2c840d8cadccee8d60931b60448201526064016107d7565b5f815167ffffffffffffffff8111156112945761129461223d565b6040519080825280601f01601f1916602001820160405280156112be576020820181803683370190505b5090505f5b8251811015611423575f8382815181106112df576112df6124d7565b01602001516001600160f81b0319169050606160f81b81108015906113125750603d60f91b6001600160f81b0319821611155b1561135657611326602060f883901c61257b565b60f81b83838151811061133b5761133b6124d7565b60200101906001600160f81b03191690815f1a90535061141a565b604160f81b6001600160f81b03198216108015906113825750602d60f91b6001600160f81b0319821611155b1561139a578083838151811061133b5761133b6124d7565b600360fc1b6001600160f81b03198216108015906113c65750603960f81b6001600160f81b0319821611155b156113de578083838151811061133b5761133b6124d7565b60405162461bcd60e51b815260206004820152601160248201527024b73b30b634b21031b430b930b1ba32b960791b60448201526064016107d7565b506001016112c3565b509392505050565b5f8460405160200161143d9190612594565b60408051601f1981840301815291815281516020928301205f818152601490935291205490915060ff16156114a95760405162461bcd60e51b81526020600482015260126024820152712730b6b29030b63932b0b23c903a30b5b2b760711b60448201526064016107d7565b60128054905f6114b8836124eb565b90915550506012545f82815260146020908152604091829020805460ff1916600117905581516060810190925287825281018660028111156114fc576114fc6123cf565b8152426020918201525f8381526013909152604090208151819061152090826125f3565b50602082015160018083018054909160ff1990911690836002811115611548576115486123cf565b0217905550604082015181600201559050506115648482611a2d565b61156e8184611a46565b836001600160a01b0316817fb7b6e386f25269be9819512acf3d67ad739e8266e469b5456932bf1477acf7c78888426040516115ac939291906123e3565b60405180910390a3505050505050565b6001600160a01b0383163b156116dd57604051630a85bd0160e11b81526001600160a01b0384169063150b7a02906115fe9088908890879087906004016126af565b6020604051808303815f875af1925050508015611638575060408051601f3d908101601f19168201909252611635918101906126eb565b60015b61169f573d808015611665576040519150601f19603f3d011682016040523d82523d5f602084013e61166a565b606091505b5080515f0361169757604051633250574960e11b81526001600160a01b03851660048201526024016107d7565b805160208201fd5b6001600160e01b03198116630a85bd0160e11b146116db57604051633250574960e11b81526001600160a01b03851660048201526024016107d7565b505b5050505050565b60606116ef82611084565b505f828152600660205260408120805461170890612455565b80601f016020809104026020016040519081016040528092919081815260200182805461173490612455565b801561177f5780601f106117565761010080835404028352916020019161177f565b820191905f5260205f20905b81548152906001019060200180831161176257829003601f168201915b505050505090505f61179b60408051602081019091525f815290565b905080515f036117ac575092915050565b8151156117de5780826040516020016117c6929190612706565b60405160208183030381529060405292505050919050565b6110d584611a95565b600b5460ff1615610afd5760405163d93c066560e01b815260040160405180910390fd5b5f6001600160e01b0319821663780e9d6360e01b14806106e757506106e782611b05565b808061184357506001600160a01b03821615155b15611904575f61185284611084565b90506001600160a01b0383161580159061187e5750826001600160a01b0316816001600160a01b031614155b8015611891575061188f8184610e02565b155b156118ba5760405163a9fbf51f60e01b81526001600160a01b03841660048201526024016107d7565b81156119025783856001600160a01b0316826001600160a01b03167f8c5be1e5ebec7d5bd14f71427d1e84f3dd0314c0f7b2291e5b200ac8c7c3b92560405160405180910390a45b505b50505f90815260046020526040902080546001600160a01b0319166001600160a01b0392909216919091179055565b5f80611940858585611b29565b90506001600160a01b03811661199c5761199784600980545f838152600a60205260408120829055600182018355919091527f6e1540171b6c0c960b71a7020d9f60077f6af931a8bbf590da0223dacf75c7af0155565b6119bf565b846001600160a01b0316816001600160a01b0316146119bf576119bf8185611c1b565b6001600160a01b0385166119db576119d684611c98565b6110d5565b846001600160a01b0316816001600160a01b0316146110d5576110d58585611d3f565b5f8051602061284983398151915254600203610afd57604051633ee5aeb560e01b815260040160405180910390fd5b6107ae828260405180602001604052805f815250611d8d565b5f828152600660205260409020611a5d82826125f3565b506040518281527ff8e1a15aba9398e019f0b49df1a4fde98ee17ae345cb5f6b5e2c27f5033e8ce79060200160405180910390a15050565b6060611aa082611084565b505f611ab660408051602081019091525f815290565b90505f815111611ad45760405180602001604052805f815250610ddb565b80611ade84611da4565b604051602001611aef929190612706565b6040516020818303038152906040529392505050565b5f6001600160e01b03198216632483248360e11b14806106e757506106e782611e34565b5f828152600260205260408120546001600160a01b0390811690831615611b5557611b55818486611e83565b6001600160a01b03811615611b8f57611b705f855f8061182f565b6001600160a01b0381165f90815260036020526040902080545f190190555b6001600160a01b03851615611bbd576001600160a01b0385165f908152600360205260409020805460010190555b5f8481526002602052604080822080546001600160a01b0319166001600160a01b0389811691821790925591518793918516917fddf252ad1be2c89b69c2b068fc378daa952ba7f163c4a11628f55a4df523b3ef91a4949350505050565b5f611c2583610aa7565b5f838152600860209081526040808320546001600160a01b0388168452600790925290912091925090818314611c7a575f83815260208281526040808320548584528184208190558352600890915290208290555b5f938452600860209081526040808620869055938552525081205550565b6009545f90611ca990600190612568565b5f838152600a602052604081205460098054939450909284908110611cd057611cd06124d7565b905f5260205f20015490508060098381548110611cef57611cef6124d7565b5f918252602080832090910192909255828152600a90915260408082208490558582528120556009805480611d2657611d26612734565b600190038181905f5260205f20015f9055905550505050565b5f6001611d4b84610aa7565b611d559190612568565b6001600160a01b039093165f908152600760209081526040808320868452825280832085905593825260089052919091209190915550565b611d978383611ee7565b610a43335f8585856115bc565b60605f611db083611f48565b60010190505f8167ffffffffffffffff811115611dcf57611dcf61223d565b6040519080825280601f01601f191660200182016040528015611df9576020820181803683370190505b5090508181016020015b5f19016f181899199a1a9b1b9c1cb0b131b232b360811b600a86061a8153600a8504945084611e0357509392505050565b5f6001600160e01b031982166380ac58cd60e01b1480611e6457506001600160e01b03198216635b5e139f60e01b145b806106e757506301ffc9a760e01b6001600160e01b03198316146106e7565b611e8e83838361201f565b610a43576001600160a01b038316611ebc57604051637e27328960e01b8152600481018290526024016107d7565b60405163177e802f60e01b81526001600160a01b0383166004820152602481018290526044016107d7565b6001600160a01b038216611f1057604051633250574960e11b81525f60048201526024016107d7565b5f611f1c83835f6110c9565b90506001600160a01b03811615610a43576040516339e3563760e11b81525f60048201526024016107d7565b5f8072184f03e93ff9f4daa797ed6e38ed64bf6a1f0160401b8310611f865772184f03e93ff9f4daa797ed6e38ed64bf6a1f0160401b830492506040015b6d04ee2d6d415b85acef81000000008310611fb2576d04ee2d6d415b85acef8100000000830492506020015b662386f26fc100008310611fd057662386f26fc10000830492506010015b6305f5e1008310611fe8576305f5e100830492506008015b6127108310611ffc57612710830492506004015b6064831061200e576064830492506002015b600a83106106e75760010192915050565b5f6001600160a01b038316158015906110d55750826001600160a01b0316846001600160a01b0316148061205857506120588484610e02565b806110d55750505f908152600460205260409020546001600160a01b03908116911614919050565b6001600160e01b03198116811461105d575f80fd5b5f602082840312156120a5575f80fd5b8135610ddb81612080565b5f5b838110156120ca5781810151838201526020016120b2565b50505f910152565b5f81518084526120e98160208601602086016120b0565b601f01601f19169290920160200192915050565b602081525f610ddb60208301846120d2565b5f6020828403121561211f575f80fd5b5035919050565b80356001600160a01b038116811461213c575f80fd5b919050565b5f8060408385031215612152575f80fd5b61215b83612126565b946020939093013593505050565b5f805f6060848603121561217b575f80fd5b61218484612126565b925061219260208501612126565b9150604084013590509250925092565b5f80604083850312156121b3575f80fd5b50508035926020909101359150565b5f602082840312156121d2575f80fd5b610ddb82612126565b5f80604083850312156121ec575f80fd5b6121f583612126565b915060208301358015158114612209575f80fd5b809150509250929050565b5f805f60608486031215612226575f80fd5b505081359360208301359350604090920135919050565b634e487b7160e01b5f52604160045260245ffd5b5f67ffffffffffffffff8084111561226b5761226b61223d565b604051601f8501601f19908116603f011681019082821181831017156122935761229361223d565b816040528093508581528686860111156122ab575f80fd5b858560208301375f602087830101525050509392505050565b5f82601f8301126122d3575f80fd5b610ddb83833560208501612251565b5f805f606084860312156122f4575f80fd5b833567ffffffffffffffff8082111561230b575f80fd5b612317878388016122c4565b9450602086013591506003821061232c575f80fd5b90925060408501359080821115612341575f80fd5b5061234e868287016122c4565b9150509250925092565b5f805f806080858703121561236b575f80fd5b61237485612126565b935061238260208601612126565b925060408501359150606085013567ffffffffffffffff8111156123a4575f80fd5b8501601f810187136123b4575f80fd5b6123c387823560208401612251565b91505092959194509250565b634e487b7160e01b5f52602160045260245ffd5b606081525f6123f560608301866120d2565b90506003841061241357634e487b7160e01b5f52602160045260245ffd5b602082019390935260400152919050565b5f8060408385031215612435575f80fd5b61243e83612126565b915061244c60208401612126565b90509250929050565b600181811c9082168061246957607f821691505b60208210810361248757634e487b7160e01b5f52602260045260245ffd5b50919050565b634e487b7160e01b5f52601160045260245ffd5b80820281158282048414176106e7576106e761248d565b5f826124d257634e487b7160e01b5f52601260045260245ffd5b500490565b634e487b7160e01b5f52603260045260245ffd5b5f600182016124fc576124fc61248d565b5060010190565b805169ffffffffffffffffffff8116811461213c575f80fd5b5f805f805f60a08688031215612530575f80fd5b61253986612503565b945060208601519350604086015192506060860151915061255c60808701612503565b90509295509295909350565b818103818111156106e7576106e761248d565b60ff82811682821603908111156106e7576106e761248d565b5f82516125a58184602087016120b0565b9190910192915050565b601f821115610a4357805f5260205f20601f840160051c810160208510156125d45750805b601f840160051c820191505b818110156116dd575f81556001016125e0565b815167ffffffffffffffff81111561260d5761260d61223d565b6126218161261b8454612455565b846125af565b602080601f831160018114612654575f841561263d5750858301515b5f19600386901b1c1916600185901b1785556116db565b5f85815260208120601f198616915b8281101561268257888601518255948401946001909101908401612663565b508582101561269f57878501515f19600388901b60f8161c191681555b5050505050600190811b01905550565b6001600160a01b03858116825284166020820152604081018390526080606082018190525f906126e1908301846120d2565b9695505050505050565b5f602082840312156126fb575f80fd5b8151610ddb81612080565b5f83516127178184602088016120b0565b83519083019061272b8183602088016120b0565b01949350505050565b634e487b7160e01b5f52603160045260245ffdfe54686973206469676974616c206e616d65206973207265636f72646564206f6e2d636861696e207769746820612076657269666961626c65206372656174696f6e2074696d657374616d7020616e6420696d6d757461626c6520726567697374726174696f6e20646174612e20497420726570726573656e747320612047656e2d302072656769737465726564206469676974616c2061737365742077697468696e20746865204e4e4d2070726f746f636f6c20616e64206578697374732061732061207472616e7366657261626c65204e465420776974686f75742072656e6577616c2c2067756172616e746565732c206f7220646570656e64656e63792e9b779b17422d0df92223018b32b4d1fa46e071723d6817e2486d003becc55f00a26469706673582212203d524db38e4d35d964a2a5e9a3e7af5090de7089d4893f10e419aef19b92a08464736f6c63430008180033",
  "devdoc": {
    "errors": {
      "ERC2981InvalidDefaultRoyalty(uint256,uint256)": [
        {
          "details": "The default royalty set is invalid (eg. (numerator / denominator) >= 1)."
        }
      ],
      "ERC2981InvalidDefaultRoyaltyReceiver(address)": [
        {
          "details": "The default royalty receiver is invalid."
        }
      ],
      "ERC2981InvalidTokenRoyalty(uint256,uint256,uint256)": [
        {
          "details": "The royalty set for a specific `tokenId` is invalid (eg. (numerator / denominator) >= 1)."
        }
      ],
      "ERC2981InvalidTokenRoyaltyReceiver(uint256,address)": [
        {
          "details": "The royalty receiver for `tokenId` is invalid."
        }
      ],
      "ERC721EnumerableForbiddenBatchMint()": [
        {
          "details": "Batch mint is not allowed."
        }
      ],
      "ERC721IncorrectOwner(address,uint256,address)": [
        {
          "details": "Indicates an error related to the ownership over a particular token. Used in transfers.",
          "params": {
            "owner": "Address of the current owner of a token.",
            "sender": "Address whose tokens are being transferred.",
            "tokenId": "Identifier number of a token."
          }
        }
      ],
      "ERC721InsufficientApproval(address,uint256)": [
        {
          "details": "Indicates a failure with the `operator`s approval. Used in transfers.",
          "params": {
            "operator": "Address that may be allowed to operate on tokens without being their owner.",
            "tokenId": "Identifier number of a token."
          }
        }
      ],
      "ERC721InvalidApprover(address)": [
        {
          "details": "Indicates a failure with the `approver` of a token to be approved. Used in approvals.",
          "params": {
            "approver": "Address initiating an approval operation."
          }
        }
      ],
      "ERC721InvalidOperator(address)": [
        {
          "details": "Indicates a failure with the `operator` to be approved. Used in approvals.",
          "params": {
            "operator": "Address that may be allowed to operate on tokens without being their owner."
          }
        }
      ],
      "ERC721InvalidOwner(address)": [
        {
          "details": "Indicates that an address can't be an owner. For example, `address(0)` is a forbidden owner in ERC-721. Used in balance queries.",
          "params": {
            "owner": "Address of the current owner of a token."
          }
        }
      ],
      "ERC721InvalidReceiver(address)": [
        {
          "details": "Indicates a failure with the token `receiver`. Used in transfers.",
          "params": {
            "receiver": "Address to which tokens are being transferred."
          }
        }
      ],
      "ERC721InvalidSender(address)": [
        {
          "details": "Indicates a failure with the token `sender`. Used in transfers.",
          "params": {
            "sender": "Address whose tokens are being transferred."
          }
        }
      ],
      "ERC721NonexistentToken(uint256)": [
        {
          "details": "Indicates a `tokenId` whose `owner` is the zero address.",
          "params": {
            "tokenId": "Identifier number of a token."
          }
        }
      ],
      "ERC721OutOfBoundsIndex(address,uint256)": [
        {
          "details": "An `owner`'s token query was out of bounds for `index`. NOTE: The owner being `address(0)` indicates a global out of bounds index."
        }
      ],
      "EnforcedPause()": [
        {
          "details": "The operation failed because the contract is paused."
        }
      ],
      "ExpectedPause()": [
        {
          "details": "The operation failed because the contract is not paused."
        }
      ],
      "OwnableInvalidOwner(address)": [
        {
          "details": "The owner is not a valid owner account. (eg. `address(0)`)"
        }
      ],
      "OwnableUnauthorizedAccount(address)": [
        {
          "details": "The caller account is not authorized to perform an operation."
        }
      ],
      "ReentrancyGuardReentrantCall()": [
        {
          "details": "Unauthorized reentrant call."
        }
      ]
    },
    "events": {
      "Approval(address,address,uint256)": {
        "details": "Emitted when `owner` enables `approved` to manage the `tokenId` token."
      },
      "ApprovalForAll(address,address,bool)": {
        "details": "Emitted when `owner` enables or disables (`approved`) `operator` to manage all of its assets."
      },
      "BatchMetadataUpdate(uint256,uint256)": {
        "details": "This event emits when the metadata of a range of tokens is changed. So that the third-party platforms such as NFT market could timely update the images and related attributes of the NFTs."
      },
      "MetadataUpdate(uint256)": {
        "details": "This event emits when the metadata of a token is changed. So that the third-party platforms such as NFT market could timely update the images and related attributes of the NFT."
      },
      "Paused(address)": {
        "details": "Emitted when the pause is triggered by `account`."
      },
      "Transfer(address,address,uint256)": {
        "details": "Emitted when `tokenId` token is transferred from `from` to `to`."
      },
      "Unpaused(address)": {
        "details": "Emitted when the pause is lifted by `account`."
      }
    },
    "kind": "dev",
    "methods": {
      "approve(address,uint256)": {
        "details": "Gives permission to `to` to transfer `tokenId` token to another account. The approval is cleared when the token is transferred. Only a single account can be approved at a time, so approving the zero address clears previous approvals. Requirements: - The caller must own the token or be an approved operator. - `tokenId` must exist. Emits an {Approval} event."
      },
      "balanceOf(address)": {
        "details": "Returns the number of tokens in ``owner``'s account."
      },
      "getApproved(uint256)": {
        "details": "Returns the account approved for `tokenId` token. Requirements: - `tokenId` must exist."
      },
      "isApprovedForAll(address,address)": {
        "details": "Returns if the `operator` is allowed to manage all of the assets of `owner`. See {setApprovalForAll}"
      },
      "name()": {
        "details": "Returns the token collection name."
      },
      "owner()": {
        "details": "Returns the address of the current owner."
      },
      "ownerOf(uint256)": {
        "details": "Returns the owner of the `tokenId` token. Requirements: - `tokenId` must exist."
      },
      "paused()": {
        "details": "Returns true if the contract is paused, and false otherwise."
      },
      "renounceOwnership()": {
        "details": "Leaves the contract without owner. It will not be possible to call `onlyOwner` functions. Can only be called by the current owner. NOTE: Renouncing ownership will leave the contract without an owner, thereby disabling any functionality that is only available to the owner."
      },
      "royaltyInfo(uint256,uint256)": {
        "details": "Returns how much royalty is owed and to whom, based on a sale price that may be denominated in any unit of exchange. The royalty amount is denominated and should be paid in that same unit of exchange. NOTE: ERC-2981 allows setting the royalty to 100% of the price. In that case all the price would be sent to the royalty receiver and 0 tokens to the seller. Contracts dealing with royalty should consider empty transfers."
      },
      "safeTransferFrom(address,address,uint256)": {
        "details": "Safely transfers `tokenId` token from `from` to `to`, checking first that contract recipients are aware of the ERC-721 protocol to prevent tokens from being forever locked. Requirements: - `from` cannot be the zero address. - `to` cannot be the zero address. - `tokenId` token must exist and be owned by `from`. - If the caller is not `from`, it must have been allowed to move this token by either {approve} or   {setApprovalForAll}. - If `to` refers to a smart contract, it must implement {IERC721Receiver-onERC721Received}, which is called upon   a safe transfer. Emits a {Transfer} event."
      },
      "safeTransferFrom(address,address,uint256,bytes)": {
        "details": "Safely transfers `tokenId` token from `from` to `to`. Requirements: - `from` cannot be the zero address. - `to` cannot be the zero address. - `tokenId` token must exist and be owned by `from`. - If the caller is not `from`, it must be approved to move this token by either {approve} or {setApprovalForAll}. - If `to` refers to a smart contract, it must implement {IERC721Receiver-onERC721Received}, which is called upon   a safe transfer. Emits a {Transfer} event."
      },
      "setApprovalForAll(address,bool)": {
        "details": "Approve or remove `operator` as an operator for the caller. Operators can call {transferFrom} or {safeTransferFrom} for any token owned by the caller. Requirements: - The `operator` cannot be the address zero. Emits an {ApprovalForAll} event."
      },
      "symbol()": {
        "details": "Returns the token collection symbol."
      },
      "tokenByIndex(uint256)": {
        "details": "Returns a token ID at a given `index` of all the tokens stored by the contract. Use along with {totalSupply} to enumerate all tokens."
      },
      "tokenOfOwnerByIndex(address,uint256)": {
        "details": "Returns a token ID owned by `owner` at a given `index` of its token list. Use along with {balanceOf} to enumerate all of ``owner``'s tokens."
      },
      "totalSupply()": {
        "details": "Returns the total amount of tokens stored by the contract."
      },
      "transferFrom(address,address,uint256)": {
        "details": "Transfers `tokenId` token from `from` to `to`. WARNING: Note that the caller is responsible to confirm that the recipient is capable of receiving ERC-721 or else they may be permanently lost. Usage of {safeTransferFrom} prevents loss, though the caller must understand this adds an external call which potentially creates a reentrancy vulnerability. Requirements: - `from` cannot be the zero address. - `to` cannot be the zero address. - `tokenId` token must be owned by `from`. - If the caller is not `from`, it must be approved to move this token by either {approve} or {setApprovalForAll}. Emits a {Transfer} event."
      },
      "transferOwnership(address)": {
        "details": "Transfers ownership of the contract to a new account (`newOwner`). Can only be called by the current owner."
      }
    },
    "version": 1
  },
  "userdoc": {
    "kind": "user",
    "methods": {},
    "version": 1
  },
  "storageLayout": {
    "storage": [
      {
        "astId": 415,
        "contract": "contracts/YourContract.sol:YourContract",
        "label": "_name",
        "offset": 0,
        "slot": "0",
        "type": "t_string_storage"
      },
      {
        "astId": 417,
        "contract": "contracts/YourContract.sol:YourContract",
        "label": "_symbol",
        "offset": 0,
        "slot": "1",
        "type": "t_string_storage"
      },
      {
        "astId": 421,
        "contract": "contracts/YourContract.sol:YourContract",
        "label": "_owners",
        "offset": 0,
        "slot": "2",
        "type": "t_mapping(t_uint256,t_address)"
      },
      {
        "astId": 425,
        "contract": "contracts/YourContract.sol:YourContract",
        "label": "_balances",
        "offset": 0,
        "slot": "3",
        "type": "t_mapping(t_address,t_uint256)"
      },
      {
        "astId": 429,
        "contract": "contracts/YourContract.sol:YourContract",
        "label": "_tokenApprovals",
        "offset": 0,
        "slot": "4",
        "type": "t_mapping(t_uint256,t_address)"
      },
      {
        "astId": 435,
        "contract": "contracts/YourContract.sol:YourContract",
        "label": "_operatorApprovals",
        "offset": 0,
        "slot": "5",
        "type": "t_mapping(t_address,t_mapping(t_address,t_bool))"
      },
      {
        "astId": 1890,
        "contract": "contracts/YourContract.sol:YourContract",
        "label": "_tokenURIs",
        "offset": 0,
        "slot": "6",
        "type": "t_mapping(t_uint256,t_string_storage)"
      },
      {
        "astId": 1493,
        "contract": "contracts/YourContract.sol:YourContract",
        "label": "_ownedTokens",
        "offset": 0,
        "slot": "7",
        "type": "t_mapping(t_address,t_mapping(t_uint256,t_uint256))"
      },
      {
        "astId": 1497,
        "contract": "contracts/YourContract.sol:YourContract",
        "label": "_ownedTokensIndex",
        "offset": 0,
        "slot": "8",
        "type": "t_mapping(t_uint256,t_uint256)"
      },
      {
        "astId": 1500,
        "contract": "contracts/YourContract.sol:YourContract",
        "label": "_allTokens",
        "offset": 0,
        "slot": "9",
        "type": "t_array(t_uint256)dyn_storage"
      },
      {
        "astId": 1504,
        "contract": "contracts/YourContract.sol:YourContract",
        "label": "_allTokensIndex",
        "offset": 0,
        "slot": "10",
        "type": "t_mapping(t_uint256,t_uint256)"
      },
      {
        "astId": 3196,
        "contract": "contracts/YourContract.sol:YourContract",
        "label": "_paused",
        "offset": 0,
        "slot": "11",
        "type": "t_bool"
      },
      {
        "astId": 54,
        "contract": "contracts/YourContract.sol:YourContract",
        "label": "_owner",
        "offset": 1,
        "slot": "11",
        "type": "t_address"
      },
      {
        "astId": 2145,
        "contract": "contracts/YourContract.sol:YourContract",
        "label": "_defaultRoyaltyInfo",
        "offset": 0,
        "slot": "12",
        "type": "t_struct(RoyaltyInfo)2142_storage"
      },
      {
        "astId": 2150,
        "contract": "contracts/YourContract.sol:YourContract",
        "label": "_tokenRoyaltyInfo",
        "offset": 0,
        "slot": "13",
        "type": "t_mapping(t_uint256,t_struct(RoyaltyInfo)2142_storage)"
      },
      {
        "astId": 8631,
        "contract": "contracts/YourContract.sol:YourContract",
        "label": "priceFeed",
        "offset": 0,
        "slot": "14",
        "type": "t_contract(AggregatorV3Interface)45"
      },
      {
        "astId": 8636,
        "contract": "contracts/YourContract.sol:YourContract",
        "label": "priceImmortal",
        "offset": 0,
        "slot": "15",
        "type": "t_uint256"
      },
      {
        "astId": 8641,
        "contract": "contracts/YourContract.sol:YourContract",
        "label": "priceElite",
        "offset": 0,
        "slot": "16",
        "type": "t_uint256"
      },
      {
        "astId": 8646,
        "contract": "contracts/YourContract.sol:YourContract",
        "label": "priceFounder",
        "offset": 0,
        "slot": "17",
        "type": "t_uint256"
      },
      {
        "astId": 8648,
        "contract": "contracts/YourContract.sol:YourContract",
        "label": "_tokenIds",
        "offset": 0,
        "slot": "18",
        "type": "t_uint256"
      },
      {
        "astId": 8661,
        "contract": "contracts/YourContract.sol:YourContract",
        "label": "nameRecords",
        "offset": 0,
        "slot": "19",
        "type": "t_mapping(t_uint256,t_struct(NameData)8656_storage)"
      },
      {
        "astId": 8665,
        "contract": "contracts/YourContract.sol:YourContract",
        "label": "registeredNames",
        "offset": 0,
        "slot": "20",
        "type": "t_mapping(t_bytes32,t_bool)"
      },
      {
        "astId": 8685,
        "contract": "contracts/YourContract.sol:YourContract",
        "label": "authorizedMinters",
        "offset": 0,
        "slot": "21",
        "type": "t_mapping(t_address,t_bool)"
      },
      {
        "astId": 8689,
        "contract": "contracts/YourContract.sol:YourContract",
        "label": "authorizedMintCount",
        "offset": 0,
        "slot": "22",
        "type": "t_mapping(t_address,t_uint256)"
      }
    ],
    "types": {
      "t_address": {
        "encoding": "inplace",
        "label": "address",
        "numberOfBytes": "20"
      },
      "t_array(t_uint256)dyn_storage": {
        "base": "t_uint256",
        "encoding": "dynamic_array",
        "label": "uint256[]",
        "numberOfBytes": "32"
      },
      "t_bool": {
        "encoding": "inplace",
        "label": "bool",
        "numberOfBytes": "1"
      },
      "t_bytes32": {
        "encoding": "inplace",
        "label": "bytes32",
        "numberOfBytes": "32"
      },
      "t_contract(AggregatorV3Interface)45": {
        "encoding": "inplace",
        "label": "contract AggregatorV3Interface",
        "numberOfBytes": "20"
      },
      "t_enum(Tier)8628": {
        "encoding": "inplace",
        "label": "enum YourContract.Tier",
        "numberOfBytes": "1"
      },
      "t_mapping(t_address,t_bool)": {
        "encoding": "mapping",
        "key": "t_address",
        "label": "mapping(address => bool)",
        "numberOfBytes": "32",
        "value": "t_bool"
      },
      "t_mapping(t_address,t_mapping(t_address,t_bool))": {
        "encoding": "mapping",
        "key": "t_address",
        "label": "mapping(address => mapping(address => bool))",
        "numberOfBytes": "32",
        "value": "t_mapping(t_address,t_bool)"
      },
      "t_mapping(t_address,t_mapping(t_uint256,t_uint256))": {
        "encoding": "mapping",
        "key": "t_address",
        "label": "mapping(address => mapping(uint256 => uint256))",
        "numberOfBytes": "32",
        "value": "t_mapping(t_uint256,t_uint256)"
      },
      "t_mapping(t_address,t_uint256)": {
        "encoding": "mapping",
        "key": "t_address",
        "label": "mapping(address => uint256)",
        "numberOfBytes": "32",
        "value": "t_uint256"
      },
      "t_mapping(t_bytes32,t_bool)": {
        "encoding": "mapping",
        "key": "t_bytes32",
        "label": "mapping(bytes32 => bool)",
        "numberOfBytes": "32",
        "value": "t_bool"
      },
      "t_mapping(t_uint256,t_address)": {
        "encoding": "mapping",
        "key": "t_uint256",
        "label": "mapping(uint256 => address)",
        "numberOfBytes": "32",
        "value": "t_address"
      },
      "t_mapping(t_uint256,t_string_storage)": {
        "encoding": "mapping",
        "key": "t_uint256",
        "label": "mapping(uint256 => string)",
        "numberOfBytes": "32",
        "value": "t_string_storage"
      },
      "t_mapping(t_uint256,t_struct(NameData)8656_storage)": {
        "encoding": "mapping",
        "key": "t_uint256",
        "label": "mapping(uint256 => struct YourContract.NameData)",
        "numberOfBytes": "32",
        "value": "t_struct(NameData)8656_storage"
      },
      "t_mapping(t_uint256,t_struct(RoyaltyInfo)2142_storage)": {
        "encoding": "mapping",
        "key": "t_uint256",
        "label": "mapping(uint256 => struct ERC2981.RoyaltyInfo)",
        "numberOfBytes": "32",
        "value": "t_struct(RoyaltyInfo)2142_storage"
      },
      "t_mapping(t_uint256,t_uint256)": {
        "encoding": "mapping",
        "key": "t_uint256",
        "label": "mapping(uint256 => uint256)",
        "numberOfBytes": "32",
        "value": "t_uint256"
      },
      "t_string_storage": {
        "encoding": "bytes",
        "label": "string",
        "numberOfBytes": "32"
      },
      "t_struct(NameData)8656_storage": {
        "encoding": "inplace",
        "label": "struct YourContract.NameData",
        "members": [
          {
            "astId": 8650,
            "contract": "contracts/YourContract.sol:YourContract",
            "label": "name",
            "offset": 0,
            "slot": "0",
            "type": "t_string_storage"
          },
          {
            "astId": 8653,
            "contract": "contracts/YourContract.sol:YourContract",
            "label": "tier",
            "offset": 0,
            "slot": "1",
            "type": "t_enum(Tier)8628"
          },
          {
            "astId": 8655,
            "contract": "contracts/YourContract.sol:YourContract",
            "label": "mintTime",
            "offset": 0,
            "slot": "2",
            "type": "t_uint256"
          }
        ],
        "numberOfBytes": "96"
      },
      "t_struct(RoyaltyInfo)2142_storage": {
        "encoding": "inplace",
        "label": "struct ERC2981.RoyaltyInfo",
        "members": [
          {
            "astId": 2139,
            "contract": "contracts/YourContract.sol:YourContract",
            "label": "receiver",
            "offset": 0,
            "slot": "0",
            "type": "t_address"
          },
          {
            "astId": 2141,
            "contract": "contracts/YourContract.sol:YourContract",
            "label": "royaltyFraction",
            "offset": 20,
            "slot": "0",
            "type": "t_uint96"
          }
        ],
        "numberOfBytes": "32"
      },
      "t_uint256": {
        "encoding": "inplace",
        "label": "uint256",
        "numberOfBytes": "32"
      },
      "t_uint96": {
        "encoding": "inplace",
        "label": "uint96",
        "numberOfBytes": "12"
      }
    }
  }
}